:020000040000fa
:080000000002040000000000f2
:020000040000fa
:0400080040030000b1
:020000040000fa
:04000c0040030000ad
:020000040000fa
:0400100040030000a9
:020000040000fa
:0400140040030000a5
:020000040000fa
:0400180040030000a1
:020000040000fa
:04001c00400300009d
:020000040000fa
:040020004003000099
:020000040000fa
:040024004003000095
:020000040000fa
:040028004003000091
:020000040000fa
:04002c00400300008d
:020000040000fa
:040030004003000089
:020000040000fa
:04003400dc020000ea
:020000040000fa
:040038004003000081
:020000040000fa
:04003c00400300007d
:020000040000fa
:040040004003000079
:020000040000fa
:04004400c8020000ee
:020000040000fa
:040048004003000071
:020000040000fa
:04004c00400300006d
:020000040000fa
:040050004003000069
:020000040000fa
:040054004003000065
:020000040000fa
:040058004003000061
:020000040000fa
:04005c00400300005d
:020000040000fa
:040060004003000059
:020000040000fa
:040064004003000055
:020000040000fa
:040068004003000051
:020000040000fa
:04006c00400300004d
:020000040000fa
:040070004003000049
:020000040000fa
:040074001e03000067
:020000040000fa
:040078004003000041
:020000040000fa
:04007c00400300003d
:020000040000fa
:040080004003000039
:020000040000fa
:040084004003000035
:020000040000fa
:040088004003000031
:020000040000fa
:04008c00400300002d
:020000040000fa
:040090004003000029
:020000040000fa
:040094004003000025
:020000040000fa
:040098004003000021
:020000040000fa
:04009c00400300001d
:020000040000fa
:0400a0000e0300004b
:020000040000fa
:0400a400160300003f
:020000040000fa
:0400a8004003000011
:020000040000fa
:0400ac00400300000d
:020000040000fa
:0400b0004003000009
:020000040000fa
:0400b4004003000005
:020000040000fa
:0400b8004003000001
:020000040000fa
:0400bc0040030000fd
:020000040000fa
:0400c00040030000f9
:020000040000fa
:0400c40040030000f5
:020000040000fa
:0400c80040030000f1
:020000040000fa
:0400cc0040030000ed
:020000040000fa
:0400d00040030000e9
:020000040000fa
:0400d40040030000e5
:020000040000fa
:0400d80040030000e1
:020000040000fa
:0400dc0040030000dd
:020000040000fa
:0400e00040030000d9
:020000040000fa
:0400e40040030000d5
:020000040000fa
:0400e80040030000d1
:020000040000fa
:0400ec0040030000cd
:020000040000fa
:0400f00040030000c9
:020000040000fa
:0400f40040030000c5
:020000040000fa
:0400f80040030000c1
:020000040000fa
:0400fc0040030000bd
:020000040000fa
:0401000040030000b8
:020000040000fa
:0401040040030000b4
:020000040000fa
:0401080040030000b0
:020000040000fa
:04010c0040030000ac
:020000040000fa
:0401100040030000a8
:020000040000fa
:0401140040030000a4
:020000040000fa
:0401180040030000a0
:020000040000fa
:04011c00400300009c
:020000040000fa
:040120004003000098
:020000040000fa
:040124004003000094
:020000040000fa
:040128004003000090
:020000040000fa
:04012c00400300008c
:020000040000fa
:040130004003000088
:020000040000fa
:040134004003000084
:020000040000fa
:040138004003000080
:020000040000fa
:04013c00400300007c
:020000040000fa
:040140004003000078
:020000040000fa
:040144004003000074
:020000040000fa
:040148004003000070
:020000040000fa
:04014c00400300006c
:020000040000fa
:040150004003000068
:020000040000fa
:040154004003000064
:020000040000fa
:040158004003000060
:020000040000fa
:04015c00400300005c
:020000040000fa
:0402080040030000af
:020000040000fa
:04020c0040030000ab
:020000040000fa
:0402100040030000a7
:020000040000fa
:0402140040030000a3
:020000040000fa
:04021800400300009f
:020000040000fa
:04021c00400300009b
:020000040000fa
:040220004003000097
:020000040000fa
:040224004003000093
:020000040000fa
:04022800400300008f
:020000040000fa
:04022c00400300008b
:020000040000fa
:040230004003000087
:020000040000fa
:04023400dc020000e8
:020000040000fa
:04023800400300007f
:020000040000fa
:04023c00400300007b
:020000040000fa
:040240004003000077
:020000040000fa
:04024400c8020000ec
:020000040000fa
:04024800400300006f
:020000040000fa
:04024c00400300006b
:020000040000fa
:040250004003000067
:020000040000fa
:040254004003000063
:020000040000fa
:04025800400300005f
:020000040000fa
:04025c00400300005b
:020000040000fa
:040260004003000057
:020000040000fa
:040264004003000053
:020000040000fa
:04026800400300004f
:020000040000fa
:04026c00400300004b
:020000040000fa
:040270004003000047
:020000040000fa
:040274001e03000065
:020000040000fa
:04027800400300003f
:020000040000fa
:04027c00400300003b
:020000040000fa
:040280004003000037
:020000040000fa
:040284004003000033
:020000040000fa
:04028800400300002f
:020000040000fa
:04028c00400300002b
:020000040000fa
:040290004003000027
:020000040000fa
:040294004003000023
:020000040000fa
:04029800400300001f
:020000040000fa
:04029c00400300001b
:020000040000fa
:0402a0000e03000049
:020000040000fa
:0402a400160300003d
:020000040000fa
:0402a800400300000f
:020000040000fa
:0402ac00400300000b
:020000040000fa
:0402b0004003000007
:020000040000fa
:0402b4004003000003
:020000040000fa
:0402b80040030000ff
:020000040000fa
:0402bc0040030000fb
:020000040000fa
:0402c00040030000f7
:020000040000fa
:0402c40040030000f3
:020000040000fa
:0402c80040030000ef
:020000040000fa
:0402cc0040030000eb
:020000040000fa
:0402d00040030000e7
:020000040000fa
:0402d40040030000e3
:020000040000fa
:0402d80040030000df
:020000040000fa
:0402dc0040030000db
:020000040000fa
:0402e00040030000d7
:020000040000fa
:0402e40040030000d3
:020000040000fa
:0402e80040030000cf
:020000040000fa
:0402ec0040030000cb
:020000040000fa
:0402f00040030000c7
:020000040000fa
:0402f40040030000c3
:020000040000fa
:0402f80040030000bf
:020000040000fa
:0402fc0040030000bb
:020000040000fa
:0403000040030000b6
:020000040000fa
:0403040040030000b2
:020000040000fa
:0403080040030000ae
:020000040000fa
:04030c0040030000aa
:020000040000fa
:0403100040030000a6
:020000040000fa
:0403140040030000a2
:020000040000fa
:04031800400300009e
:020000040000fa
:04031c00400300009a
:020000040000fa
:040320004003000096
:020000040000fa
:040324004003000092
:020000040000fa
:04032800400300008e
:020000040000fa
:04032c00400300008a
:020000040000fa
:040330004003000086
:020000040000fa
:040334004003000082
:020000040000fa
:04033800400300007e
:020000040000fa
:04033c00400300007a
:020000040000fa
:040340004003000076
:020000040000fa
:040344004003000072
:020000040000fa
:04034800400300006e
:020000040000fa
:04034c00400300006a
:020000040000fa
:040350004003000066
:020000040000fa
:040354004003000062
:020000040000fa
:04035800400300005e
:020000040000fa
:04035c00400300005a
:020000040000fa
:100400004f8120000edf20000e0188000000000058
:10041000000020000000e000020032000001200087
:100420002002880014000700970007000000e00089
:1004300003003a00001d21000100200002003700e7
:100440000000200001002000810f70000100320038
:1004500014000700000020000000e000020032004d
:100460000000020000000000ea110200000000008d
:100470000040da000000fe004440a900a01a20005d
:100480000000e0000300320000002000a00188000e
:100490004440a800000006008a1f78008b1f7800e7
:1004a0000000060091018800800478000000eb0045
:1004b0001a003700e284440032a0b4009905ba0063
:1004c000e284440032a0b4009906ba00e2844400f9
:1004d00032a0b4000006eb00476fde00fd07b2005b
:1004e000636ce10003003a00ebff07000000eb0043
:1004f0000a003700606ce10004003a00005deb0088
:100500008b05e900fdff3e00040037006168e10053
:10051000010032000086eb000b00070019c7ba008b
:100520001905ba000e04e00003003a000a00e000da
:10053000e0ff3a0000000600fe07b2009e018800be
:100540008a047800f5ff3700395dba008b05e900b1
:100550000c003200295dba008b05e900080032006a
:100560000c00e00003003a00e284440032a0b40032
:10057000f5ff370019ddba008b05e900faff3a00f4
:100580008904e800e184440032a0b40000000600c1
:10059000801f78000000fa0084e0a90011e1a900a2
:1005a0000621ef0010c0b30000e8b7000080fa0099
:1005b0004f00780000400600809fbe00829fbe0072
:1005c0000000fa008460a9001240800023408000ef
:1005d000e0fd23000100200002004000838048006d
:1005e0001040880021408800124080002340800095
:1005f00070aa2c00d1022000800f5100818f590079
:100600000200360010c0b30001e8b7000080fa0015
:100610004f01be004f00be00004006000000fa007f
:1006200087c0a9000080fa00004006000000fa0020
:1006300087e0a9000080fa00004006003600f800bc
:10064000809fbe00829fbe00849fbe00869fbe002a
:100650000000fa004d0607008660a90010c0b30034
:1006600009e8b7000080fa004f03be004f02be0049
:100670004f01be004f00be003600f90000400600ea
:100680000040da000000fe0000000500889fbe0068
:100690008a9fbe008c1f780099000700a0003300dd
:1006a00003866c006450e1002e0032006420e100fb
:1006b000330032006150e1002f0032006120e10080
:1006c0003100320085855500eb07b000090020009d
:1006d00008042000050037000804440089844c0009
:1006e0000a0031000603430087834b0000015300da
:1006f00081815b00f8ff33000203be000800a00008
:100700000804440089844c00f6ff3900c639dd0036
:100710008301730001003200130020008904d1001e
:100720000884d3000998a300050032000800a70040
:100730000300a0008904d1000884d3008b05e800e1
:100740008904d1000884d3000001eb000281d200ab
:100750003000070001f0a1000cf0a70001f0a0009c
:10076000780037006420e1007a0032000801be0002
:100770000200be00f7ff37006120e1007500320083
:100780006000b800f3ff37000000200001f82700e8
:10079000f0ff37000001be00440007000470a7000e
:1007a00003f0a10003f8a30013003a006509b100ab
:1007b00010003200090035006928e1000200350010
:1007c0000100280000000500000040008180480072
:1007d0008502e900fcff3a0000000600f88f4200a5
:1007e000050035008100d1000080d3008502e800bb
:1007f000fcff3a00000006008000eb00000005004e
:100800004f89de0082017800610237006011b80074
:100810006f02370081002000618055000b003d0011
:100820000b00200061fe2f000100e1001d003400dc
:1008300082817100610164008904d1000884d300c1
:100840000000e800faff3a00710020006100640037
:1008500003007000020060000900320061044400df
:10086000e0844c000988a500050032008b05e800f3
:100870006808e10002003a008904d1000884d3002e
:10088000f20f20000258e10005003d00c75ddd00c9
:10089000f907b200898075000800780000000600a2
:1008a0000bf827008b00780000000500c70ade0067
:1008b000f107b200f50fb20008003200e1cf4200ac
:1008c000020032000170a00024000500810f7000ba
:1008d000010032000408050044000500810f70008b
:1008e00002003a00140005008502e9000000400003
:1008f00081c04800fcff3b000170a00024000500ff
:100900000004be00e9ff07000003be000405be00ae
:100910000200be00e5ff0700844f750000000600de
:100920000200be006450e100050036006420e100d2
:10093000020036000968a30001003a000800be006a
:100940000160a0004f0678004f05be004f04be00b6
:1009500000000600f0ff2f00f1ff2700f9ff37002d
:100960000c00fa00889fbe008a9fbe008c9fbe00cc
:10097000e3ff07000206be00840578000200be0007
:1009800002002000b601070005003a008b02b30008
:1009900012002000b201070001003a00f8856d0046
:1009a0000c01be00c60007000800be009b0032001c
:1009b0000b08a3009e003a000df0a7000be0a0007a
:1009c00009f0a7000bf0a00009f0a1000801be008b
:1009d000bb0007000bf0a6009500320001003c00b0
:1009e0000bd0a0008acf7500b20033006000b800c1
:1009f0006250e10099003900a1003e000b28a300dd
:100a0000a2003a000bf8a300060032000b58a30026
:100a1000a70032000801be00a90007000800be00c0
:100a2000940032000800be00c00007000004be00b1
:100a3000050578000bf0a7000b30a6000bf0a10015
:100a40005b079800324f200053f32300ab010700ef
:100a500005003d000800be00120020000b02070048
:100a60000004be000a05e9004a0798006150b90079
:100a700063ff0700008fbe000c01be007c02070070
:100a8000a2010700300798000100e00002003d00cd
:100a900060001000e0801800f2ff2700820f500075
:100aa000e08f580064003e000c00be009701070074
:100ab00020079800f2072000820f5000e08f5800b6
:100ac00005003c0012f82f00f3ff2f00820f5000aa
:100ad000838f580009003d000a00e0000300320047
:100ae00001003c000201ea00020578006000b80045
:100af000200798003a079800190037003e00900040
:100b00006100b9003eff0700809fbe000c00be00e0
:100b10004109dd004811de007208b10050010700f4
:100b20000005be001e01be00510207004f01be00bd
:100b30008b000700809fbe000c00be000a01be00b3
:100b4000870007001e01be00490207004f01be00da
:100b5000840007008221270013f3230044020700ca
:100b60000005be002e0090006100b90024ff0700c0
:100b700001f0a2000c01be007a0007000006be00d2
:100b80000800be00e30107000c01be0038020700a8
:100b90000a01be0073000700809fbe004a000700e4
:100ba0002e0590000af0a7000a05ea0005003700ac
:100bb0000800be000801be002d0207000004be00b0
:100bc0000c00be000801be000a00a70028020700b2
:100bd0000006be000a05d100f5ff3a005e01900054
:100be00002e0a600030037000001be003600070047
:100bf000a6fe07000004be004f00be00b6000700be
:100c00000801be001a0207003e0190009f01070084
:100c1000de0590000bf0a70001f0a2004f06be0019
:100c20004f05be004f04be000080fa000000060021
:100c300025000700f9ff3700270007006000b80013
:100c40000bd0a7000bc0a0000be0a7000bc0a200b8
:100c50000bc0a70001f82700f0ff37000df8a30034
:100c6000020032001e000700190007000bf8a30065
:100c7000eaff32000b30a70001f0a200e7ff3700c7
:100c80000df8a300f9ff3a00f7ff37000801be0096
:100c90000b000700e6ff320001003c000df0a2004f
:100ca0006000b8000df0a70009000700dbff370067
:100cb0000b000700f1ff2700f0ff2f00d7ff3700e0
:100cc000010007000d01370001f8230000000500b6
:100cd00001f8270000000500200220000100370075
:100ce0001002200090408800000006006022b8003a
:100cf000060220000000d0008180d2000482d200d1
:100d00008582d2000000a0000202520083825a00b5
:100d1000030031000202420083824a000000a10069
:100d20000603e900f3ff3a00000006000003be00de
:100d3000defe07006220e100020032000600be0075
:100d400005000500e507b100f107b20004f023003b
:100d50008480700007f0a70001f0a00024000500c7
:100d600003f0a200889fbe008a9fbe008c1f7800ff
:100d7000e3fe0700eafe33006450e1004f0032005a
:100d80006420e1005200320003826c0007003b0047
:100d90000905d0000306d000820f54000c065d0048
:100da0000200390002003200890178000306780051
:100db0008582550004003d000003fd008103fd0015
:100dc0008502ea008b854200840f720002003b001e
:100dd00060001000e08018006011b8000005eb0012
:100de0007a28e1000a00390006007800c75ddd00be
:100df000f707b200878075002d00370082817100ef
:100e00000a017800610560008180d1000080d30074
:100e10008502e900f9ff3b00060440008784480092
:100e200002003b0060041400e0841c000988a30059
:100e3000070032008a8171008281710061016400c3
:100e40008904d1000884d3008b05e800170037001f
:100e50000978a30013003a000b00e00013003400ef
:100e60008b05e9000804440089844c000a4474009e
:100e70000978a3000d003a000b00e00007003400e1
:100e80008b05e9000804440089844c0001003a0005
:100e90000b0020000978a300f7ff32000001eb00ef
:100ea00002003700828171000a01780059fe0700b4
:100eb0000cf0a70001f0a000a2fe37006420e100c2
:100ec00002003a00838f6c00a2fe33000801be00ce
:100ed0000200be009bfe3700889fbe008a9fbe00b6
:100ee0008c9fbe000004be0070fe07000800be001c
:100ef0006420e10048003e005500320072212700c6
:100f0000132b24007f00070047003c000800be00b0
:100f1000c2ec2800e32c2c007800070047003500c5
:100f20000800be0001f0a1000200200003382300e9
:100f300072000700430035000800be00b2a32a007b
:100f400083fb23004a0107000200200003f0230076
:100f500001f0a70003f0a00082ff07006b0007006c
:100f60000005be0026fe070001f0a2000006be003c
:100f70000200280013f323003d0107000801be0012
:100f800078ff0700809fbe000c00be0032082800da
:100f9000e3952b00360107004f01be0071ff0700eb
:100fa0000006be000001be0031010700809fbe00a8
:100fb0004241250083b823002d01070002002000d4
:100fc00003e8230067ff07000c01be0028010700ab
:100fd0000006be004f00be00f2f92b00c3d4230070
:100fe000230107000200200003f023005dff07003b
:100ff0000c01be005aff07000001be000c00be003d
:10100000a2fd07000200200003f0230055ff0700a7
:10101000610145009d0007004f06be004f05be0060
:101020004f04be000000060001f827000000200069
:101030002202200092408800f7ff37006000b800cd
:10104000fbff370001f8230000002000f2ff37000b
:1010500009f8a300f0ff32006000b800eeff37008f
:10106000889fbe008a9fbe000003be000ffe0700df
:101070008505780082815200020020006220e10094
:1010800004003a00f307b100040035007718e100ce
:10109000040035000600be00140037006000b800f0
:1010a0000f003700f50f2000faff2f008502d10056
:1010b0000a85d3008301e900fcff3b0081846200c4
:1010c00000046500890f7400f2ff32008582ea0097
:1010d0000a85ea008184620000046500cdfd0700f6
:1010e00007f0a70001f0a0000081eb000200e00083
:1010f0004f05be004f04be00000006001400200093
:101100000f013700f4ff2f000d0137000001be0072
:10111000e6fd07000470a70003f0a1006509b10017
:10112000160032000d0035006828e1000600350089
:10113000f0ff2f00f1ff27000300e00013003b0049
:1011400001002800000005000000400081804800e8
:101150008502e900fcff3a0008003700f88f4200e2
:1011600002003c008000eb00000005008100d1007f
:101170000080d3008502e800fcff3a000300e00095
:1011800002003b0060001000e08018000000060034
:10119000881f7800030478000300e00007003d008a
:1011a00060001000e080180060011900e081190063
:1011b00002003b0001f02d0003003700040007008f
:1011c00008f0a70001f0a0004f047800000006001e
:1011d000889fbe008a9fbe000082700004027100da
:1011e00004827100260032000004be000200be002e
:1011f0006011b8006b092000950220000182cf0029
:101200000a0039000541b1000082cf000700390013
:101210000541b1000982cf00040039000541b10049
:101220000882cf00010039000541b100054252009b
:10123000120032000a003b008281710061016400eb
:101240008100d1000080d3008984d3000884d300ba
:101250008b05e8000442e800f7ff3a00070037007a
:101260000804440089844c00000048008180480044
:101270008b05e9000442e900f9ff3a0065fd07002b
:101280004f05be004f04be00000006000003be0074
:1012900086fd07006220e100020032000600be0069
:1012a0000000060085024100e30f20000328e10052
:1012b00005003c00a3fe2f000328e10007003d00cd
:1012c0000500200001003700f50f2000200220005b
:1012d000904088006000b80008003700130020002c
:1012e0008381520005003d008100d1000080d300c1
:1012f0008301e800fcff3a0005002000c72add005a
:10130000f107b2008580700007f0a70001f0a0008f
:1013100000000600889fbe008a9fbe008c9fbe0012
:1013200082fe0700850478000005be006420e1000d
:1013300049003e006220e100030032000900350050
:101340000bf8a300440032000bf8a30008003200a1
:101350001002200090408800f0ff2f00f1ff2700ce
:101360003d00370001f82f00000020003a00370050
:101370003d0007007afe07000006be000a00be001e
:10138000324f200053f323005eff070006003400b5
:101390000c00be003400070071fe07000006be000e
:1013a0000a00be00020037008904e9000c00be00fc
:1013b0002d0007002e0007002b00070069fe070024
:1013c0000001be000c00be00b0fc07000005be001e
:1013d0000001be00260007000006be00a2f32300a5
:1013e000430d2c005ffe0700809fbe000c00be0076
:1013f000d2e32700d3f02b001d0007004f01be00f1
:10140000a2fc07000006be000a01be00180007008b
:101410000a01be0053fe07000006be006148b90085
:10142000f7fc07000005be0032082800e3952b00fa
:101430000f0007000c01be004afe07000006be00b8
:101440000a00be000200280013f323000800070072
:101450000c01be0043fe07004f06be004f05be0054
:101460004f04be000000060003f023000200050048
:10147000889fbe008a9fbe008c1f780020fd070059
:1014800027fd330003866c006450e1002400320025
:101490006420e100270032006150e10022003200a8
:1014a0006120e100210032008b854200eb07b10092
:1014b0000134b800003ab8000804420089844a00a8
:1014c000013ab8000030b8008880400009014a00a5
:1014d0000400330000004000818048000201490000
:1014e0008b05e900c909dd008301700001003200ad
:1014f00013002000c814de004814dd004709de0098
:101500001200b200c808de0008847000c1fc0700a9
:1015100001f0a1000cf0a70001f0a00009fd3700c8
:101520006120e1000bfd32000801be000200be0098
:10153000f7ff37006150e100fcff3a0005fd37007e
:10154000889fbe008a9fbe00841f7800ecfc0700c5
:101550004f00780011003300f0ff2f00838f6c00e4
:1015600006003b00040565000a00a70008003700dc
:1015700009f0a6001000200008003700820f540078
:10158000838f5c00030039001000200001003e0042
:101590000000200009f0a7000000ea004f05be008f
:1015a0004f04be000000e00000000600800078004c
:1015b000010178003104e000fdff3a000000510015
:0415c0000000060021
:020000040000fa
:1015c4000d5000004231000020690000732000002b
:1015d400707200006573000073650000642e0000e3
:1015e4002020000020430000686100006e6e0000af
:1015f400656c0000206d00006f640000653a000017
:1016040020430000686100006e6e0000656c0000fd
:101614002055000070200000202000002020000041
:1016240020200000202000002020000020200000b6
:10163400200a0000000d000050420000322000008b
:10164400697300002070000072650000737300006d
:10165400656400002e200000202000004368000084
:10166400616e00006e6500006c2000006d6f00006c
:10167400646500003a20000043680000616e0000c9
:101684006e6500006c200000446f0000776e00005f
:101694002020000020200000202000002020000046
:1016a40020200000202000000a0000000d5000004f
:1016b40042310000206900007320000070720000b5
:1016c4006573000073650000642e00002020000094
:1016d400205600006f6c0000756d0000652000004e
:1016e4006d6f0000646500003a200000566f000032
:1016f4006c7500006d65000020550000702000002e
:1017040020200000202000002020000020200000d5
:10171400202000002020000020200000200a0000db
:10172400000d0000504200003220000069730000e8
:10173400207000007265000073730000656400008f
:101744002e20000020200000566f00006c75000061
:101754006d650000206d00006f640000653a0000b4
:10176400205600006f6c0000756d000065200000bd
:10177400446f0000776e000020200000202000004d
:101784002020000020200000202000002020000055
:10179400202000000a0000000d5000004233000029
:1017a400206900007320000070720000657300005f
:1017b4007365000064200000666f00007220000062
:1017c4006c65000073730000207400006861000001
:1017d4006e2000003320000073650000632e0000bb
:1017e4002000000053770000697400006368000063
:1017f40065640000207400006f200000436800004e
:10180400616e00006e6500006c2000006d6f0000ca
:10181400646500002e20000020200000202000002d
:1018240020200000202000002020000020200000b4
:10183400202000000a0000005377000069740000b3
:101844006368000065640000207400006f200000dd
:10185400566f00006c7500006d650000206d00007f
:101864006f640000652e000020200000202000008e
:101874002020000020200000202000002020000064
:1018840020200000202000000a0000000d2000009d
:1018940050420000332000006973000020700000f3
:1018a4007265000073730000656400002066000028
:1018b4006f72000020330000207300006563000095
:1018c400206f0000722000006d6f00007265000040
:1018d4002e20000054560000204f00004e2f000020
:1018e4004f66000066200000202000002020000039
:1018f40020200000202000002020000020200000e4
:10190400202000002020000020200000200a0000e9
:0419140000000000cf
:020000040000fa
:101918000000fa00c802a900c822a800cc02a8004a
:101928008000200080118800113a80000000270004
:101938008080600000002600808f500003003a007d
:10194800c0002000c011880010003700113a800044
:10195800000027008080600000002500808f500074
:1019680003003a00c0002000c011880007003700bb
:10197800113a800000002700008060000000e000ad
:1019880002003a0070062000c011880000002a00fa
:101998009011880087e0a90091058000f0ff2800d9
:1019a800808060000000230001007000900588001e
:1019b80097e0a80087c0a90091058000f08f2f004c
:1019c8000080600000a0a0009005880097c0a900d2
:1019d80031e2a8003342a8000080fa0000000600a7
:1019e8000400fa00004f780011079800c8ff0700ac
:1019f8000b0037000000000091118000002020003b
:101a0800008060000000e000fbff3a001e00fb00c1
:101a1800a01188001e0090000000e900100798003f
:101a28001e0090000000e000f2ff3a0000000000f5
:101a38009111800000102000008060000000e0008c
:101a4800fbff320031e2a9000080fa000000060026
:101a58000400fa00100798000040eb0010479800b7
:101a68001100200000c2b300ddff070011002000b4
:101a780000c3b300daff07001100200080c7b300dd
:101a8800d7ff070030c0b300004f780015003700bb
:101a98001e00fb004200dd009e0090000008de00f2
:101aa800004078006f406000104798001e4090008a
:101ab800e94f5000040034001e4090007043b0000d
:101ac80010479800030037001e4090000043b00004
:101ad80010479800110020001e409000c0ff07002a
:101ae8001e4fe9001e4078000004e000e8ff3d00ba
:101af8001100200000c2b300b9ff07000000eb008e
:101b0800100798000080fa00000006000600fa009e
:101b180010079800210798000040eb001047980034
:101b28001100200000c2b300adff07001100200023
:101b380000c3b300aaff07001100200080c7b3004c
:101b4800a7ff070070c0b300004f78001b003700e4
:101b58001e00fb004201dd001e009000ae00900058
:101b6800820178008301e900030033008100d1007d
:101b78000080d300fbff3700004078006f40600012
:101b8800104798001e409000e94f500004003400b0
:101b98001e4090007043b0001047980003003700c3
:101ba8001e4090000043b00010479800110020002c
:101bb8001e4090008aff07001e4fe9001e40780073
:101bc8000004e000e2ff3d001100200000c2b30065
:101bd80083ff07006000b8001007980021079800ed
:101be8000080fa00000006000800fa00889fbe0086
:101bf800300798000040eb00004f780011002000eb
:101c080000c2b30076ff07001e0037003e009000b8
:101c18008000eb00fbfa07000004be001e80fb00fa
:101c280064001000cf80de00f3fa07000001be0058
:101c3800000020000112240047fb07000001be003d
:101c48000800be008ffa0700d0fa070010079800b6
:101c58001e019000d0cc2c000010b8004308de0014
:101c68006a00b90000007800000051004047980061
:101c78004e4090000043b0001100200058ff0700bc
:101c88001e4fe8001e407800e44f5000dfff36008a
:101c98001100200000c2b30051ff07004f04be002e
:101ca8000080fa00000006000400fa0010079800ff
:101cb8000000eb00000f7800060037001e009000bf
:101cc8001e004000104078001100200044ff07006b
:101cd8001e0fe8001e00900032fe07009e0f500005
:101ce800f6ff31000080fa00000006000000fa004c
:101cf8000080eb0060198800c042a800c082a800dc
:101d0800c882a800c922a9006800a8006820a80005
:101d18006bc0a80063c0a8006020a8006000a800ed
:101d28006bc0a8006820a8006800a80061058000b2
:101d38000000270001007000600588008660a90087
:101d48009660a8000080fa00000006000000fa0073
:101d580006c8bf00e14f500006003a0020ae280038
:101d6800d1ff0700708b2400010e2e001801070018
:101d78000800370006c8bf00e24f500005003a00cf
:101d8800d0b12800c8ff0700708f2000010e2e0078
:101d98000f0107000080fa00000006000000fa00aa
:101da80006c8bf00e14f500006003a0080b5280081
:101db800bdff0700f0012e00010e2e0004010700f0
:101dc8000800370006c8bf00e24f500005003a007f
:101dd80030b92800b4ff0700f0022d00010e2e00d4
:101de800fb0007000080fa00000006000000fa006f
:101df800e0bc2800acff07000ac8bf000080fb0059
:101e08000000e9004f00de00004078000ae8b70053
:101e18000ac8bf00e14f500002003a0040bf280046
:101e280001003700e0c128009fff07000080fa008a
:101e3800000006000000fa0007c8bf000004a20066
:101e48000004e000030032008f00070010c0b30058
:101e580007e8b70001c8bf000004a2000004e000c2
:101e68000300320010c0b30008e8b7000a003700ca
:101e780009c8bf000004e000070032000868ef004e
:101e880080c4280088ff0700f00b2400010e2e00f4
:101e9800cf0007000968ef000080fa000000060084
:101ea8000000fa0006c8bf00e44f500002003a00e4
:101eb800e0ff07001800370006c8bf000004e00074
:101ec80003003a000868ef000140fe0012003700e6
:101ed80007c8bf000004e0000200320074000700d9
:101ee8000768ef0008c8bf000004e00001003200e6
:101ef800beff07000ac8bf00e14f500002003a00c9
:101f0800a6ff0700040037000ac8bf000004e0006d
:101f180001003a008dff07000080fa00000006006b
:101f28000000fa000668ef001016800064006000e8
:101f38000000e00003003a0006c8bf000004a0004b
:101f480006e8b70010168000700060000000e0008e
:101f580003003a0006c8bf000014a00006e8b70056
:101f680050168000700060000000e00003003a0096
:101f780006c8bf000024a00006e8b7000080fa00e9
:101f8800000006000800fa00605b230020079800a4
:101f98000000eb00000f78000040eb00604798005d
:101fa8000040eb00204798000e003700dcff0700d8
:101fb800618020009140780061479800ee409000d1
:101fc8002e40900080cf500002003a001e0fe8001b
:101fd800020037000000eb00000f7800ee40900090
:101fe800214798002e0090009e0f5000efff31000f
:101ff8000080fa00000006000000fa0011a1a90004
:102008001061a90081088000f0fc2f0000806000aa
:10201800800888001021a90031058000f0ff280001
:102028000080600000e0a0003005880084e0a9007e
:1020380094e0a8000621ef000080fa0000000600e6
:102048000000fa0005a1a90021088000f0fc2f007b
:1020580000806000200888000421a9002105800074
:10206800f0ff28008080600000002300010070005d
:10207800200588008460a9009460a8000021ef0072
:102088000080fa00000006000000fa0005a1a9007f
:10209800ebff07000228ef000428ef0080de2f0086
:1020a8001008880005e1a8000080fa00000006007a
:1020b8000400fa0005e1a9000168ef001240800061
:1020c80023408000028fbe000228ef000428ef00a2
:1020d8001e00be00823e20000300200001fb070016
:1020e8000080fa00000006000400fa00008fbe001d
:1020f80011e1a8000068ef001e01be004218dd00d3
:10210800ce10de00810070004210dd00008fbe009e
:1021180011a1a9001061a90081088000f0fc2f001e
:1021280000806000800888001021a9001e00780047
:10213800600888000080fa00000006000400fa0029
:10214800008fbe001e00be00e7ff07000140fe0032
:102158000080fa00000006000400fa00008fbe00ac
:102168001e00be00e0ff0700120037006116800065
:10217800002020000080600000f0a7000000ea00b6
:102188000000e9004f00de00004078000080fb00fe
:10219800610060004900dd00611680000190a10027
:1021a8000100700060168800200220000100200055
:1021b8006b00070000c8bf000004a2000004e00094
:1021c800eaff3a00cd22a9000080fa0000000600cc
:1021d8000600fa001007980021079800401921000e
:1021e80001002000dcff0700401921000100200049
:1021f800d2ff07000000eb00000f7800190037003d
:102208000023200001002000d3ff07001e009000db
:10221800ae0090001e017800820178008301e90079
:10222800030033008100d1000080d300fbff37009a
:102238000000780061006000004078000004e000c1
:1022480004003200a069200001002000bbff070045
:10225800030037000023200001002000b7ff07001b
:102268001e0fe8001e007800ff0f5000e4ff340046
:102278000080fa00000006000400fa001007980029
:102288001e009000e80f500003003a000040eb00e9
:10229800004f7800100037009e009000401f20007b
:1022a800808f500003003a0060c6b300004f7800ea
:1022b800090037009e00900000022000808f500027
:1022c80003003a0050c5b300004f78000200370001
:1022d80050c5b300004f780011028000000e2000a6
:1022e8000100700010028800213a8000f08f2f0052
:1022f80000806000203a88001e01fb008007200053
:10230800a1092000337420008049780081497800b1
:102318008249780012002000600420007105200026
:102328002374200080497800814978008249780028
:102338004207a80000000000103a80006100600019
:102348000000e000fcff3a0011028000f0f12f00cd
:1023580000806000100288000080fa00000006007b
:020000040000fa
:10236800f03fb1000180b10006003500ee0309001e
:1023780000000000403fb1000180b100fbff3d00bc
:102388001000b000203fb0000200350000800900b6
:08239800000000000000060037
:020000040000fa
:1023a0001008000002000000000000000c080000ff
:1023b0000400000000000000000800000c00000005
:1023c00000000000120800000200000000000000f1
:0423d0000000000009
:020000040000fa
:1023d4000000fa00cd02a80008ff070019ff07005b
:1023e40080002000a5ff070041fe070049fd07000b
:0823f400acfe0700feff3700fc
:020000040000fa
:0200000401f009
:040010007f0000006d
:00000001FF
